{
  "_format": "hh-sol-artifact-1",
  "contractName": "Token",
  "sourceName": "contracts/Token.sol",
  "abi": [
    {
      "inputs": [],
      "stateMutability": "nonpayable",
      "type": "constructor"
    },
    {
      "inputs": [
        {
          "internalType": "address",
          "name": "account",
          "type": "address"
        }
      ],
      "name": "balanceOf",
      "outputs": [
        {
          "internalType": "uint256",
          "name": "",
          "type": "uint256"
        }
      ],
      "stateMutability": "view",
      "type": "function"
    },
    {
      "inputs": [
        {
          "internalType": "address",
          "name": "",
          "type": "address"
        }
      ],
      "name": "balances",
      "outputs": [
        {
          "internalType": "uint256",
          "name": "",
          "type": "uint256"
        }
      ],
      "stateMutability": "view",
      "type": "function"
    },
    {
      "inputs": [],
      "name": "name",
      "outputs": [
        {
          "internalType": "string",
          "name": "",
          "type": "string"
        }
      ],
      "stateMutability": "view",
      "type": "function"
    },
    {
      "inputs": [],
      "name": "owner",
      "outputs": [
        {
          "internalType": "address",
          "name": "",
          "type": "address"
        }
      ],
      "stateMutability": "view",
      "type": "function"
    },
    {
      "inputs": [],
      "name": "symbol",
      "outputs": [
        {
          "internalType": "string",
          "name": "",
          "type": "string"
        }
      ],
      "stateMutability": "view",
      "type": "function"
    },
    {
      "inputs": [],
      "name": "totalSupply",
      "outputs": [
        {
          "internalType": "uint256",
          "name": "",
          "type": "uint256"
        }
      ],
      "stateMutability": "view",
      "type": "function"
    },
    {
      "inputs": [
        {
          "internalType": "address",
          "name": "to",
          "type": "address"
        },
        {
          "internalType": "uint256",
          "name": "amount",
          "type": "uint256"
        }
      ],
      "name": "transfer",
      "outputs": [],
      "stateMutability": "nonpayable",
      "type": "function"
    }
  ],
  "bytecode": "0x60806040526040518060400160405280600c81526020017f48617264686174546f6b656e0000000000000000000000000000000000000000815250600090816200004a9190620003ad565b506040518060400160405280600381526020017f484854000000000000000000000000000000000000000000000000000000000081525060019081620000919190620003ad565b506103e8600255348015620000a557600080fd5b5033600360006101000a81548173ffffffffffffffffffffffffffffffffffffffff021916908373ffffffffffffffffffffffffffffffffffffffff160217905550600254600460003373ffffffffffffffffffffffffffffffffffffffff1673ffffffffffffffffffffffffffffffffffffffff1681526020019081526020016000208190555062000494565b600081519050919050565b7f4e487b7100000000000000000000000000000000000000000000000000000000600052604160045260246000fd5b7f4e487b7100000000000000000000000000000000000000000000000000000000600052602260045260246000fd5b60006002820490506001821680620001b557607f821691505b602082108103620001cb57620001ca6200016d565b5b50919050565b60008190508160005260206000209050919050565b60006020601f8301049050919050565b600082821b905092915050565b600060088302620002357fffffffffffffffffffffffffffffffffffffffffffffffffffffffffffffffff82620001f6565b620002418683620001f6565b95508019841693508086168417925050509392505050565b6000819050919050565b6000819050919050565b60006200028e62000288620002828462000259565b62000263565b62000259565b9050919050565b6000819050919050565b620002aa836200026d565b620002c2620002b98262000295565b84845462000203565b825550505050565b600090565b620002d9620002ca565b620002e68184846200029f565b505050565b5b818110156200030e5762000302600082620002cf565b600181019050620002ec565b5050565b601f8211156200035d576200032781620001d1565b6200033284620001e6565b8101602085101562000342578190505b6200035a6200035185620001e6565b830182620002eb565b50505b505050565b600082821c905092915050565b6000620003826000198460080262000362565b1980831691505092915050565b60006200039d83836200036f565b9150826002028217905092915050565b620003b88262000133565b67ffffffffffffffff811115620003d457620003d36200013e565b5b620003e082546200019c565b620003ed82828562000312565b600060209050601f83116001811462000425576000841562000410578287015190505b6200041c85826200038f565b8655506200048c565b601f1984166200043586620001d1565b60005b828110156200045f5784890151825560018201915060208501945060208101905062000438565b868310156200047f57848901516200047b601f8916826200036f565b8355505b6001600288020188555050505b505050505050565b61075480620004a46000396000f3fe608060405234801561001057600080fd5b506004361061007d5760003560e01c806370a082311161005b57806370a08231146100ee5780638da5cb5b1461011e57806395d89b411461013c578063a9059cbb1461015a5761007d565b806306fdde031461008257806318160ddd146100a057806327e235e3146100be575b600080fd5b61008a610176565b60405161009791906104ab565b60405180910390f35b6100a8610204565b6040516100b591906104e6565b60405180910390f35b6100d860048036038101906100d39190610564565b61020a565b6040516100e591906104e6565b60405180910390f35b61010860048036038101906101039190610564565b610222565b60405161011591906104e6565b60405180910390f35b61012661026b565b60405161013391906105a0565b60405180910390f35b610144610291565b60405161015191906104ab565b60405180910390f35b610174600480360381019061016f91906105e7565b61031f565b005b6000805461018390610656565b80601f01602080910402602001604051908101604052809291908181526020018280546101af90610656565b80156101fc5780601f106101d1576101008083540402835291602001916101fc565b820191906000526020600020905b8154815290600101906020018083116101df57829003601f168201915b505050505081565b60025481565b60046020528060005260406000206000915090505481565b6000600460008373ffffffffffffffffffffffffffffffffffffffff1673ffffffffffffffffffffffffffffffffffffffff168152602001908152602001600020549050919050565b600360009054906101000a900473ffffffffffffffffffffffffffffffffffffffff1681565b6001805461029e90610656565b80601f01602080910402602001604051908101604052809291908181526020018280546102ca90610656565b80156103175780601f106102ec57610100808354040283529160200191610317565b820191906000526020600020905b8154815290600101906020018083116102fa57829003601f168201915b505050505081565b80600460003373ffffffffffffffffffffffffffffffffffffffff1673ffffffffffffffffffffffffffffffffffffffff16815260200190815260200160002054101561036b57600080fd5b80600460003373ffffffffffffffffffffffffffffffffffffffff1673ffffffffffffffffffffffffffffffffffffffff16815260200190815260200160002060008282546103ba91906106b6565b9250508190555080600460008473ffffffffffffffffffffffffffffffffffffffff1673ffffffffffffffffffffffffffffffffffffffff168152602001908152602001600020600082825461041091906106ea565b925050819055505050565b600081519050919050565b600082825260208201905092915050565b60005b8381101561045557808201518184015260208101905061043a565b60008484015250505050565b6000601f19601f8301169050919050565b600061047d8261041b565b6104878185610426565b9350610497818560208601610437565b6104a081610461565b840191505092915050565b600060208201905081810360008301526104c58184610472565b905092915050565b6000819050919050565b6104e0816104cd565b82525050565b60006020820190506104fb60008301846104d7565b92915050565b600080fd5b600073ffffffffffffffffffffffffffffffffffffffff82169050919050565b600061053182610506565b9050919050565b61054181610526565b811461054c57600080fd5b50565b60008135905061055e81610538565b92915050565b60006020828403121561057a57610579610501565b5b60006105888482850161054f565b91505092915050565b61059a81610526565b82525050565b60006020820190506105b56000830184610591565b92915050565b6105c4816104cd565b81146105cf57600080fd5b50565b6000813590506105e1816105bb565b92915050565b600080604083850312156105fe576105fd610501565b5b600061060c8582860161054f565b925050602061061d858286016105d2565b9150509250929050565b7f4e487b7100000000000000000000000000000000000000000000000000000000600052602260045260246000fd5b6000600282049050600182168061066e57607f821691505b60208210810361068157610680610627565b5b50919050565b7f4e487b7100000000000000000000000000000000000000000000000000000000600052601160045260246000fd5b60006106c1826104cd565b91506106cc836104cd565b92508282039050818111156106e4576106e3610687565b5b92915050565b60006106f5826104cd565b9150610700836104cd565b925082820190508082111561071857610717610687565b5b9291505056fea26469706673582212204a452d336e77d7c869bbc4da0558345389285daf20d4d9c4c63837afa997833064736f6c63430008120033",
  "linkReferences": {},
  "deployedLinkReferences": {}
}